:0407450025750A000C
:0F071F00022D0064022F0028012C00022200008E
:080003001206ED12070880FE51
:060697008B558A568957BD
:10069D00E4F558F559AB55AA56A957120473FFC383
:1006AD00648094B04035D3EF648094B9502DEF330E
:1006BD0095E0FEEF24D0FBEE34FFFAAE58AF597C37
:1006CD00007D0A12048CEF2BF559EE3AF5587401A2
:0F06DD002557F557E43556F55680BAAE58AF5944
:0106EC0022EB
:0300230002038253
:10038200C0E0C0F0C083C082C0D075D000C000C041
:0D03920001C002C003C004C005C006C007C2
:10039F00755000755100755200209803020458C221
:1003AF009885994FE54F640D6009E54F640A600326
:1003BF000204477431252CF87600755300755400EC
:1003CF00C3E554952C7480F86553985021AF54743D
:1003DF00312FF8E6B43D0D74312FF9E4F550F55196
:1003EF008952800A0554E55470D6055380D2E552E0
:1003FF00455145506022AB50E5522401F9E4355187
:10040F00FA120697E531B461068E2D8F2E8009E51D
:10041F0031B462048E2F8F30752C007553007554D4
:10042F000074312554F876000554E55470020553D5
:10043F00641E455370EB8011E52CC3941D500AAF19
:09044F002C052C74312FF8A64F86
:10045800D007D006D005D004D003D002D001D000F8
:0B046800D0D0D082D083D0F0D0E032A2
:03000B0002059F4C
:10059F00C0E0C0F0C083C082C0D075D000C000C022
:0D05AF0001C002C003C004C005C006C007A3
:1005BC00758A66758CFC0523E52370020522C395AC
:1005CC002EE522952D4006752200752300C3E523E8
:1005DC009530E522952F5004D2908002C2907FEC8A
:1005EC0012061D8E2A8F2B7BFF7A077945852A5D93
:0605FC00852B5E12008851
:10060200D007D006D005D004D003D002D001D0004C
:0B061200D0D0D082D083D0F0D0E032F6
:10000E00EF1FAC0670011E4C600A7D027CEFDCFE19
:04001E00DDFC80EC99
:0100220022BB
:1006ED0043878075985053890F438920758BFA7510
:0B06FD008DFAC2ABD28ED2AFD2AC227D
:08072F008F993099FDC2992257
:080737008F993099FDC299224F
:05073F00007F42DFFE17
:010744002292
:02061D00AD0727
:10061F00E4F55AF55BC2B6C2B5FB74807E00A80341
:10062F00088006CEA2E713CE13D8F8FFEDF582EFC0
:10063F00558224FF92B4D2B6C2B60BBB08DCE4FBE2
:10064F00D2B612073FC2B630B714E47E80A80308B3
:10065F008005CEC313CE13D8F9425BEE425A0BBBC3
:10066F0010DED2B5ED30E309E55AF55B755A00801F
:10067F0012E55AC4F854F0C868F55AE55BC4540F34
:07068F0048F55BAE5AAF5BBA
:010696002241
:100708005389F0438901758A66758CFCC28DD28C39
:07071800D2A9D2AFC2B92241
:03000000020513E3
:0C051300787FE4F6D8FD75816D02055A72
:10047300BB010689828A83E0225002E722BBFE0287
:09048300E32289828A83E49322BA
:10048C00EF8DF0A4A8F0CF8CF0A428CE8DF0A42E84
:02049C00FE223E
:10002600E569245DF8E6056922785A300702785DAD
:10003600E475F0011204DD0204732000EB7F2ED27A
:10004600008018EF540F2490D43440D4FF30040BB2
:10005600EF24BFB41A0050032461FFE56A6002155D
:100066006A056DE56D7002056C30070D785AE4750A
:10007600F0011204DDEF0204CB02072F7403D2074E
:100086008003E4C207F5698B5A8A5B895CE4F56AEA
:10009600F56CF56DE56A60077F2012006180F575E5
:1000A6006BFFC201C200C202C203C205C206C20879
:1000B60012002FFF700D3007057F00120072AF6D22
:1000C600AE6C22B4255FC2D5C20412002FFF24D025
:1000D600B40A00501A75F00A786A30D50508B6FFDA
:1000E6000106C6A426F620D5047002D20380D924C0
:1000F600CFB41A00EF5004C2E5D204020272D20154
:1001060080C6D20080C0D20280BCD2D580BAD205C9
:1001160080B47F201200612002077401B56A004096
:10012600F1120026FF12006102009AD208D2068060
:1001360095120026FB120026FA120026F94A4B7089
:100146000679437A037BFF20022EE56A602A7E0049
:100156008E8275830012049E60060EEE656B70F04B
:10016600C2D5EBC0E0EAC0E0E9C0E0EE1202B9D0C9
:10017600E0F9D0E0FAD0E0FB120473FF60AAEBC00E
:10018600E0EAC0E0E9C0E0120061D0E02401F9D065
:10019600E03400FAD0E0FBE56B0460DCD56BD98077
:1001A600877BFF7A0279B5D202809C79108002792A
:1001B60008C206C2088008D2D5790A8004790AC224
:1001C600D5E56B047002F56BE4FAFDFEFF1200261E
:1001D600FC7B08200113120026FD7B1030000A125A
:1001E6000026FE120026FF7B20EC3382D592D550E6
:1001F60013C3E43000069FFFE49EFEE42001039D46
:10020600FDE49CFCE4CBF8C201EC700CCFCECDCC67
:10021600E824F8F870F38017C3EF33FFEE33FEEDF2
:1002260033FDEC33FCEB33FB994002FB0FD8E9EBD3
:10023600300105F8D0E0C448B201C0E00AEC4D4EEA
:100246004F78207B0070C2EAB56B0040BCC0E0125C
:1002560002BBD0F0D0E0200104C4C0E0C4B201C0AB
:10026600F012004AD0F0D5F0EB02009A1204ED012C
:10027600375301B15801084C01044201B54F01BD85
:0F0286004401BD49011D4301C35501A74601A70E
:100295004501A747036350010C2D01102E01332B97
:1002A500011423013120034C2A00CC480000012B06
:1002B5003F3F3F00790AA2D5200314300509B91044
:1002C500020404B9080104A2D52006025001042045
:1002D50002689202B56A005034C0E07F20300319ED
:1002E5007F30A20272067205500F120312C202C2BB
:1002F50006C205C2087F30800F300503E9C0E01251
:100305000061300503D0E0F9D0E0B56ACC300517BF
:100315007F30B9100C1200617F583004077F788058
:1003250003B908031200613002057F2D0200617FC9
:10033500202008F87F2B2006F322920280CF286E1A
:10034500756C6C2900D2011200263001F8C20178C3
:100355006A30D50108F60200CC2D504349581200E9
:10036500262403B405004001E490035E9312005275
:0D037500743A120052D203756A040201B1FD
:10051F00020003E493A3F8E493A34003F68001F2EF
:10052F0008DFF48029E493A3F85407240CC8C333DD
:10053F00C4540F4420C8834004F456800146F6DFAC
:10054F00E4800B010204081020408090071FE47E16
:10055F00019360BCA3FF543F30E509541FFEE493A1
:10056F00A360010ECF54C025E060A840B8E493A368
:10057F00FAE493A3F8E493A3C8C582C8CAC583CA93
:10058F00F0A3C8C582C8CAC583CADFE9DEE780BE4B
:01072E0000CA
:10049E00BB010CE58229F582E5833AF583E0225013
:1004AE0006E92582F8E622BBFE06E92582F8E2225D
:0D04BE00E58229F582E5833AF583E4932277
:1004CB00BB010689828A83F0225002F722BBFE0110
:0204DB00F3220A
:1004DD00FAE6FB0808E6F925F0F618E6CA3AF62220
:1004ED00D083D082F8E4937012740193700DA3A39E
:1004FD0093F8740193F5828883E4737402936860B2
:06050D00EFA3A3A380DFB1
:00000001FF
